:1000000009C044C017C016C015C014C013C012C028
:1000100011C010C011271FBFCFE5D0E0DEBFCDBF9C
:1000200020E0A0E4B0E001C01D93A134B207E1F7E5
:1000300002D03AC0E5CF41E041B912B943BB45BB5C
:1000400040A141130DC078944AB7417F44604ABF34
:100050004AB741604ABF88954AB74E7F4ABFF0CF42
:10006000F89440B150B1547041FD03C0511303C026
:100070000BC0511309C0109A47EA51E64150504055
:10008000E9F700C00000109810A9DACF1F930F9372
:100090000FB70F9310E04F9341E040A94F910F919C
:0C00A0000FBF0F911F911895F894FFCF2F
:00000001FF
